:020000040000FA
:100000000C9463000C948B000C948B000C944408AB
:100010000C9444080C9444080C948B000C948B00B2
:100020000C948B000C948B000C948B000C948B0024
:100030000C948B000C948B000C948B000C948B0014
:100040000C94DF060C948B000C94AD060C94870680
:100050000C948B000C948B000C948B000C948B00F4
:100060000C9429070C948B0000000000240027004A
:100070002A0000000008000201000003040700003D
:1000800000000000000000000000230026002900FE
:1000900000000000250028002B00040404040404D0
:1000A0000404020202020202030303030303010227
:1000B00004081020408001020408102001020408F6
:1000C00010200109320D11241FBECFEFD8E0DEBF92
:1000D000CDBF12E0A0E0B1E0E2E2FEE102C0059097
:1000E0000D92A234B107D9F723E0A2E4B2E001C037
:1000F0001D92A83DB207E1F710E0C2E6D0E004C0CF
:100100002197FE010E94FE0EC136D107C9F70E9459
:10011000D8090C94040F0C940000AF92BF92CF92B8
:10012000DF92EF92FF920F931F93CF93DF936C01B7
:100130007B018B01040F151FEB015E01AE18BF0898
:10014000C017D10759F06991D601ED91FC9101904A
:10015000F081E02DC6010995892B79F7C501DF9162
:10016000CF911F910F91FF90EF90DF90CF90BF90B4
:10017000AF900895FC01538D448D252F30E0842FDE
:1001800090E0821B930B541710F0CF9608950197BF
:100190000895FC01918D828D981761F0A28DAE0FAC
:1001A000BF2FB11D5D968C91928D9F5F9F73928F33
:1001B00090E008958FEF9FEF0895FC01918D828D5F
:1001C000981731F0828DE80FF11D858D90E008952C
:1001D0008FEF9FEF0895FC01918D228D892F90E084
:1001E000805C9F4F821B91098F739927089584E04B
:1001F00093E00E94EB0021E0892B09F420E0822F9C
:10020000089580E090E0892B29F00E94F700811189
:100210000C9400000895FC01A48DA80FB92FB11D06
:10022000A35ABF4F2C91848D90E001968F7399272C
:10023000848FA689B7892C93A089B1898C9183700A
:1002400080648C93938D848D981306C00288F38903
:10025000E02D80818F7D80830895EF92FF920F9330
:100260001F93CF93DF93EC0181E0888F9B8D8C8D62
:1002700098131AC0E889F989808185FF15C09FB756
:10028000F894EE89FF896083E889F9898081837019
:10029000806480839FBF81E090E0DF91CF911F91C8
:1002A0000F91FF90EF900895F62E0B8D10E00F5FE9
:1002B0001F4F0F731127E02E8C8D8E110CC00FB6BF
:1002C00007FCFACFE889F989808185FFF5CFCE0157
:1002D0000E940B01F1CFEB8DEC0FFD2FF11DE35AC6
:1002E000FF4FF0829FB7F8940B8FEA89FB898081DA
:1002F0008062CFCFCF93DF93EC01888D8823B9F054
:10030000AA89BB89E889F9898C9185FD03C0808120
:1003100086FD0DC00FB607FCF7CF8C9185FFF2CF9D
:10032000808185FFEDCFCE010E940B01E9CFDF91E7
:10033000CF91089590E0FC01EE58FF4F2491FC010D
:10034000E255FF4F3491FC01E656FF4FE491EE2356
:10035000C9F0222339F0233001F1A8F4213019F13A
:10036000223029F1F0E0EE0FFF1FE057FF4FA5917B
:10037000B4918FB7F894EC91611126C030953E236B
:100380003C938FBF08952730A9F02830C9F024305E
:1003900049F7809180008F7D03C0809180008F7726
:1003A00080938000DFCF84B58F7784BDDBCF84B5A9
:1003B0008F7DFBCF8091B0008F778093B000D2CF3C
:1003C0008091B0008F7DF9CF3E2BDACFCF93DF93B2
:1003D00090E0FC01E255FF4F249186569F4FFC01AF
:1003E00084918823D1F090E0880F991FFC01E8598F
:1003F000FF4FA591B491FC01E057FF4FC591D491F7
:1004000061110EC09FB7F8948C91E22FE0958E2376
:100410008C932881E223E8839FBFDF91CF910895D9
:100420008FB7F894EC91E22BEC938FBFF6CF3FB7E8
:10043000F8948091F8029091F902A091FA02B0919B
:10044000FB0226B5A89B05C02F3F19F00196A11D00
:10045000B11D3FBFBA2FA92F982F8827BC01CD010E
:10046000620F711D811D911D42E0660F771F881F6D
:10047000991F4A95D1F708958F929F92AF92BF929C
:10048000CF92DF92EF92FF924B015C010E94170224
:100490006B017C010E9417026C197D098E099F096E
:1004A000683E734081059105A8F321E0821A910806
:1004B000A108B10888EEC80E83E0D81EE11CF11C2B
:1004C00081149104A104B10429F7FF90EF90DF900B
:1004D000CF90BF90AF909F908F9008952091A902E8
:1004E000260F3327331F21323105ECF42091CD0242
:1004F000FC0190E080E0243069F082E00895A09152
:10050000A9022191AC0147575D4FA40FB52FB11D32
:100510002C930196861798F38091A902680F609337
:10052000A90280E0089581E0089508958FEF9FEF7C
:1005300008958FEF9FEF08958091820290E091954A
:10054000819591090895CF93DF93CB01EA01642F40
:100550000E946E02CE01DF91CF910895CF93DF9379
:100560001F92CDB7DEB7698361E0CE0101960E948C
:100570006E0281E090E00F90DF91CF91089520917D
:10058000FE023091FF022817390771F49091FC02A6
:100590008091FD02981741F0E091FC02F0E0EE5BE3
:1005A000FD4F808190E008958FEF9FEF0895EF92C7
:1005B000FF920F931F93CF93DF93DC015C96ED9036
:1005C000FC905D97E114F10479F481E090E01396DA
:1005D0009C938E93129790E080E0DF91CF911F91D2
:1005E0000F91FF90EF9008955196ED91FC915297E5
:1005F00050968C915097982F90950FB75E962C91AE
:100600005E97122F127021FD6095F89420811123BE
:1006100019F1282B2083E7012197F1F728E0462FD5
:1006200050E0308160FF1AC0382B3083E7012197FA
:10063000F1F7BA0175956795215089F7112381F07B
:100640008081892380830FBF5C968D919C91019757
:10065000F1F781E090E0C1CF2923DCCF3923E5CF4A
:100660009081892BEFCF2091FE023091FF02281755
:10067000390771F48091FD022091FC0290E0805CCA
:100680009F4F821B910960E470E00E94CF0E089595
:1006900090E080E008952091FE023091FF0228173B
:1006A0003907B9F49091FC028091FD02981789F006
:1006B000E091FC02F0E0EE5BFD4F80812091FC02B6
:1006C00030E02F5F3F4F2F7333272093FC0290E0E1
:1006D00008958FEF9FEF0895089590E080E00895CA
:1006E000CF93DF93EC0160E08E810E949A0161E07C
:1006F0008E810E949A0160E08E810E949A018BE8AF
:1007000091E00197F1F7DF91CF910895CF92DF92B9
:10071000EF92FF920F931F93CF93DF936C017C01B5
:1007200087E0E80EF11CD0E0C0E0062F10E0B80131
:100730000C2E02C0759567950A94E2F76170F70177
:1007400081917F010E949A012196C430D10579F7E9
:10075000C601DF91CF911F910F91FF90EF90DF9035
:10076000CF900C947003CF92DF92EF92FF920F9391
:100770001F93CF93DF93EC01F62E642F8C810E94A0
:100780009A018D818F3F19F060E00E949A010F2D30
:1007900010E08F8584FF25C06E0187E0C80ED11C54
:1007A000F12CE12CB8010E2C02C0759567950A94C6
:1007B000E2F76170F60181916F010E949A01FFEFEB
:1007C000EF1AFF0A88E0E816F10461F7CE01DF9125
:1007D000CF911F910F91FF90EF90DF90CF900C94ED
:1007E0007003B80184E0759567958A95E1F7CE01AD
:1007F0000E9486036F2DCE01DF91CF911F910F9143
:10080000FF90EF90DF90CF900C94860340E0682F2C
:1008100081EA93E00C94B30381E00E9406048BE329
:100820009FE10197F1F70895CF93DF93613029F0AD
:100830009091B00398609093B0036093B4031092CA
:10084000B50390E49093B6038093B703805C8093E4
:10085000B80361E08091A5030E94E6018091A603A0
:100860008F3F19F061E00E94E60161E08091A703EB
:100870000E94E601C1EAD3E09E01215A33408091F3
:10088000B00384FD0BC084E090E02196281739075F
:1008900044F461E08E810E94E601EECF88E090E0B2
:1008A000F4CF8BE39DE00197F1F760E08091A50321
:1008B0000E949A0160E08091A7030E949A018091B2
:1008C000A6038F3F19F060E00E949A018091B00367
:1008D00084FD34C063E081EA93E00E948603CBE4A8
:1008E000D6E4CE010197F1F763E081EA93E00E943C
:1008F00086032197F1F763E081EA93E00E94860383
:1009000083E592E00197F1F762E081EA93E00E94CB
:1009100086038091B00380620E94060484E0809385
:10092000B1038CE00E9406040E940C0482E08093D4
:10093000B20386E0DF91CF910C94060480620E949E
:1009400006048BE496E40197F1F78091B00380628E
:100950000E94060483E592E00197F1F78091B003CD
:1009600080620E940604D5CF9091B403891710F0DD
:100970008FEF890FE82FF0E0EF55FC4F84898068F6
:100980000C94060441E00E94B30381E090E00895D6
:10099000FB0101900020E9F73197AF01461B570B8F
:1009A000DC01ED91FC910280F381E02D09948F929E
:1009B0009F92AF92BF92CF92DF92EF92FF92CF932E
:1009C000DF93CDB7DEB7A1970FB6F894DEBF0FBEA9
:1009D000CDBF6C01990FEE08FF08F7FE40C041E063
:1009E0006DE281EA93E00E94B30322273327A90135
:1009F0002C193D094E095F0919A2CE0181967C018F
:100A00009AE0892E912CA12CB12CCA01B901A50123
:100A100094010E946D0D605DF70162937F012115C5
:100A200031054105510589F790E080E0309729F0C4
:100A3000BF0181EA93E00E94C8040196A1960FB617
:100A4000F894DEBF0FBECDBFDF91CF91FF90EF9046
:100A5000DF90CF90BF90AF909F908F900895A701A7
:100A6000960119A2CE0181967C018AE0882E912CF4
:100A7000A12CB12CCA01B901A50194010E946D0DF0
:100A8000605DF70162937F01211531054105510534
:100A900089F790E080E0309789F2BF0181EA93E026
:100AA0000E94C804CBCF60E371E00C94C8040F939C
:100AB0001F93CF93DF93EC01E881F9810190F081DE
:100AC000E02D6AE109958C01CE010E945305800F4B
:100AD000911FDF91CF911F910F9108950F931F9355
:100AE000CF93DF93EC010E94C8048C01CE010E94D9
:100AF0005305800F911FDF91CF911F910F910895A2
:100B00000C94C80463E371E089EB93E00E948005D4
:100B100068EE73E080E090E00E943C026EE371E0DA
:100B200089EB93E00E946E056AE571E089EB93E042
:100B30000E946E056AE571E084E093E00E946E0514
:100B400089EB93E00E94570584E093E00E945705EB
:100B500089EB93E00C94530563E371E089EB93E038
:100B60000E9480056EE371E089EB93E00E946E05C0
:100B700060E771E089EB93E00E946E0560E771E049
:100B800084E093E00E946E0589EB93E00E94570594
:100B900084E093E00E94570589EB93E00C945305A1
:100BA00063E371E089EB93E00E9480056EE371E0FE
:100BB00089EB93E00E946E0566E871E089EB93E0B3
:100BC0000E946E0566E871E084E093E00E946E0585
:100BD00089EB93E00E94570584E093E00E9457055B
:100BE00089EB93E00C94530563E371E089EB93E0A8
:100BF0000E9480056EE371E089EB93E00E946E0530
:100C00006DE971E089EB93E00E946E0589EB93E05A
:100C10000E94570584E093E00E94570589EB93E01A
:100C20000C9453051F93CF93DF9385ED8093BC0005
:100C30008091850290918602A0918702B0918802EE
:100C40000796A11DB11D23E0B695A79597958795A9
:100C50002A95D1F72091BC0024FD03C01092CD024B
:100C600052C0409185025091860260918702709136
:100C70008802452B462B472B69F30097A105B10548
:100C800041F025E32A95F1F700000197A109B10988
:100C9000E1CF80918402C1E0C0938302882399F15F
:100CA000D091B8001091BA008091BC008A7B8093EB
:100CB000BC0060E082E10E949A0160E083E10E9452
:100CC0009A011092CD02C093CF021092CE0261E041
:100CD00082E10E949A0161E083E10E949A01809181
:100CE000B9008E7F8093B9008091B9008D7F809389
:100CF000B90088E48093B80085E48093BC00109329
:100D0000BA00D093B800DF91CF911F9108951F9240
:100D10000F920FB60F9211242F933F934F935F932F
:100D20006F937F938F939F93AF93BF93EF93FF93B3
:100D300084E093E00E940B01FF91EF91BF91AF918E
:100D40009F918F917F916F915F914F913F912F91E3
:100D50000F900FBE0F901F9018951F920F920FB615
:100D60000F9211242F938F939F93EF93FF93E09112
:100D70001403F09115038081E0911A03F0911B0395
:100D800082FD1BC0908180911D038F5F8F73209126
:100D90001E03821741F0E0911D03F0E0EC5FFC4F71
:100DA000958F80931D03FF91EF919F918F912F91CC
:100DB0000F900FBE0F901F9018958081F4CF1F9257
:100DC0000F920FB60F9211242F933F938F939F93FF
:100DD000AF93BF938091F4029091F502A091F60237
:100DE000B091F7023091F30223E0230F2D3758F52D
:100DF0000196A11DB11D2093F3028093F4029093FC
:100E0000F502A093F602B093F7028091F802909158
:100E1000F902A091FA02B091FB020196A11DB11D49
:100E20008093F8029093F902A093FA02B093FB0228
:100E3000BF91AF919F918F913F912F910F900FBED6
:100E40000F901F90189526E8230F0296A11DB11D43
:100E5000D2CF1F920F920FB60F9211242F933F9370
:100E60004F935F936F937F938F939F93AF93BF93B2
:100E7000EF93FF938091B900887F803609F44AC0D0
:100E8000F0F5883209F4A5C018F5803109F499C04D
:100E9000B8F4882309F4F5C0883009F492C0FF91B2
:100EA000EF91BF91AF919F918F917F916F915F91E2
:100EB0004F913F912F910F900FBE0F901F9018955B
:100EC000883109F486C0803251F78093CC0214C077
:100ED000803409F49BC040F48033B9F38833F9F6C9
:100EE0008093CC0285ECAEC0803509F483C0883590
:100EF00009F494C0883499F60E941206D0CF88393C
:100F000009F48AC038F5883729F050F4883611F092
:100F1000803729F683E08093CD021092CB0255C032
:100F2000883809F479C0803919F0803809F0B7CFD2
:100F30008091CB02803208F06FC0E091CB0281E05B
:100F40008E0F8093CB028091BB00F0E0E555FD4F02
:100F500080833BC0803B39F0D0F4803A09F477C0FD
:100F6000883A09F09CCF84E08093CD021092AA02C7
:100F70001092A902F0E0E0E009958091A9028111A8
:100F80000FC081E08093A9021092890209C0803CC1
:100F900009F4A8CF883C09F4A5CF883B09F07FCF9E
:100FA000E091AA0281E08E0F8093AA02F0E0E75759
:100FB000FD4F80818093BB009091AA028091A9028D
:100FC00029C08091F2028093BB0085EC8093BC0025
:100FD00066CF9091F1028091F002981758F5E09158
:100FE000F10281E08E0F8093F102F0E0E053FD4FBB
:100FF0008081E9CFE091F10281E08E0F8093F102D0
:101000008091BB00F0E0E053FD4F80839091F102AE
:101010008091F0029817C8F285E8D8CFE091F102EC
:1010200081E08E0F8093F1028091BB00F0E0E053ED
:10103000FD4F80838091CF0281115ECF81E080934C
:10104000CE0284EA8093BC001092CD0228CF85ECBA
:101050008093BC001092CD028091CB02803230F49C
:10106000E091CB02F0E0E555FD4F10826091CB029C
:1010700070E08BEA92E0F0E0E0E009951092CB029C
:101080000ECF1092CC0238CF1F920F920FB60F9254
:1010900011242F933F934F935F936F937F938F937D
:1010A0009F93AF93BF93EF93FF93E091FE02F09174
:1010B000FF02309749F0A685B7858585968D91FF0B
:1010C00014C09C918923A1F4FF91EF91BF91AF913E
:1010D0009F918F917F916F915F914F913F912F9150
:1010E0000F900FBE0F901F9018959C91892361F768
:1010F000A389B4899C918589809589238C9386895D
:1011000097890197F1F7608D718DA685B785558513
:1011100038E020E0CB010197F1F7822F90E0959520
:101120008795282F4C91452309F02068315091F77D
:10113000868D81FD20958091FD0290E001968F7350
:1011400099273091FC02381799F0A091FD02B0E088
:10115000AE5BBD4F2C938093FD02828D938D0197E2
:10116000F1F7A389B4898C919589892B8C93ACCFA5
:10117000868D8160868FF1CFCF92DF92EF92FF92C2
:101180000F931F93E82FF92F05C001501109210972
:10119000310961F1908196239417B9F305C001508C
:1011A00011092109310911F1908196239413F7CF88
:1011B000C12CD12CE12CF12C0AC08FEFC81AD80A0F
:1011C000E80AF80A0C151D052E053F0579F0808107
:1011D0008623841791F36C2D7D2D8E2D9F2D1F91CD
:1011E0000F91FF90EF90DF90CF90089560E070E056
:1011F00080E090E01F910F91FF90EF90DF90CF90F3
:101200000895109207031092060388EE93E0A0E081
:10121000B0E08093080390930903A0930A03B0936E
:101220000B0324E031E0309305032093040325EC05
:1012300030E0309311032093100324EC30E030931E
:1012400013032093120320EC30E030931503209316
:10125000140321EC30E0309317032093160322ECA3
:1012600030E0309319032093180326EC30E03093DC
:101270001B0320931A0310921D0310921E03109259
:101280001F03109220031092BC031092BB038093A3
:10129000BD039093BE03A093BF03B093C00382E24B
:1012A00091E09093BA038093B9031092D003109207
:1012B000CF031092D2031092D1031092D403109254
:1012C000D3031092D6031092D5036091D7036E7F9B
:1012D0006D7F6093D7036695617081E0682783E036
:1012E0000E949A0161E083E00E94E601E1EBF0E0F8
:1012F000E491E093C903EDE9F0E0E491F0E0EE0F52
:10130000FF1FE057FF4F859194919093CB038093FB
:10131000CA0360E082E00E94E6018091D70381FD6C
:1013200004C061E082E00E949A0182E08093C503DC
:10133000E0EBF0E0E491E093C603ECE9F0E0E49147
:10134000F0E0EE0FFF1FEA57FF4F859194919093C5
:10135000C8038093C7031092A4031092A30386E1ED
:1013600091E09093A2038093A1038CE08093A50366
:101370008FEF8093A6038BE08093A70388E0809390
:10138000A80387E08093A90386E08093AA0385E001
:101390008093AB031092AC031092AD031092AE0396
:1013A0001092AF031092B00361E080E10C9414043A
:1013B000789484B5826084BD84B5816084BD85B530
:1013C000826085BD85B5816085BD80916E0081603C
:1013D00080936E00109281008091810082608093E2
:1013E00081008091810081608093810080918000E4
:1013F0008160809380008091B10084608093B1000F
:101400008091B00081608093B00080917A00846008
:1014100080937A0080917A00826080937A00809134
:101420007A00816080937A0080917A00806880934E
:101430007A001092C10064E084E10E9414041092CA
:10144000D4031092D3031092D2031092D1031092BE
:10145000D0031092CF038DE991E09093D60380934F
:10146000D5039091C503963108F047C02DEB30E0CD
:101470003093D0032093CF032BE931E03093D20394
:101480002093D1032CE231E03093D4032093D30393
:101490002091680084E0983048F031E09E3008F4F4
:1014A00030E081E001C0880F3A95EAF7822B809303
:1014B00068002DE630E0983050F02BE630E09E30AA
:1014C00030F02CE630E0963110F030E020E0309340
:1014D000CD032093CC03292F30E0983008F094C13D
:1014E00081E001C0880F9A95EAF78093CE0380913E
:1014F000D5039091D6030197F1F78091D303909192
:10150000D403892B49F1E091FE02F091FF0283E0C0
:10151000E93BF80709F1309739F0A389B4899C9128
:101520008589809589238C938091D7038E7F8093C2
:10153000D7031092FD021092FC0289EB93E0909386
:10154000FF028093FE02E091CC03F091CD038081F5
:101550009091CE03892B8083E0911403F0911503C1
:1015600082E08083E0911003F09111031082E091FA
:101570001203F09113038FEC808310921C03E0910F
:101580001803F091190386E08083E0911603F0912F
:101590001703808180618083E0911603F091170327
:1015A000808188608083E0911603F0911703808129
:1015B00080688083E0911603F091170380818F7D0E
:1015C000808360E089E00E94E60160E08EE00E9496
:1015D000E60161E08AE00E94E60160E08AE00E94A4
:1015E0009A0161E08DE00E94E60161E084E00E94E2
:1015F000E60160E08DE00E949A0160E084E00E94D4
:101600009A0181E00E94B40464EB71E081EA93E006
:101610000E94800582E00E94B40469EC71E081EAD6
:1016200093E00E94800583E00E94B4046EED71E0B7
:1016300081EA93E00E94800564EF71E080E090E031
:101640000E943C020E940C04C3E0D0E093E2E92E29
:10165000F12C27EB822E20E0922E33EAC32E30E0CD
:10166000D32E44244A9443E0542E612C712C50E430
:10167000352E60E0A62E60E0B62E60E08AE00E9483
:101680009A01CE010197F1F761E08AE00E949A0188
:10169000C7010197F1F760E08AE00E949A01F40126
:1016A0006491F6018491E82FF0E0EE0FFF1FEA57F6
:1016B000FF4F8591949100E412E42FE030E0462F33
:1016C0000E94BC08611571058105910529F06F5FC5
:1016D0007F4F8F4F9F4F9F700E94D60D26E933E4B6
:1016E0004BE85CE30E943A0E0E949E0DDB0124E66B
:1016F00030E00E94E30EA30192010E944E0D309350
:1017000003032093020330927C0080917A0080646E
:1017100080937A0080917A0086FDFCCF80917800DA
:10172000A0917900BA2FA82F24E630E00E94E30EA2
:10173000A30192010E944E0DC90130930103209331
:1017400000032091020330910303223431050CF48D
:1017500068C0853591050CF0D4C00E940C0480E06F
:101760000E94B40462EF71E081EA93E00E94800578
:1017700080910203909103030E94D70464E072E019
:1017800081EA93E00E94800581E00E94B40466E053
:1017900072E081EA93E00E948005809100039091BD
:1017A00001030E94D70464E072E081EA93E00E94A2
:1017B000800582E00E94B40466E172E081EA93E071
:1017C0000E9480056DE372E081EA93E00E9480054B
:1017D00083E00E94B40466E272E081EA93E00E9432
:1017E000800566E372E081EA93E00E94800560E094
:1017F00084E00E949A0161E08DE00E949A010E94BB
:10180000D0050E94AC056BC09E3040F428503109D1
:1018100081E001C0880F2A95EAF767CE2E50310982
:10182000F7CF2134310509F460C0863591050CF4F9
:10183000C0C00E940C0480E00E94B40462EF71E01A
:1018400081EA93E00E948005809102039091030356
:101850000E94D70464E072E081EA93E00E94800570
:1018600081E00E94B40466E072E081EA93E00E94A5
:10187000800580910003909101030E94D70464E0E9
:1018800072E081EA93E00E94800582E00E94B40445
:1018900066E172E081EA93E00E94800566E372E00F
:1018A00081EA93E00E94800583E00E94B40466E22E
:1018B00072E081EA93E00E9480056CE372E081EAC5
:1018C00093E00E94800561E084E00E949A0160E05C
:1018D0008DE00E949A010E9482050E94F40564EF47
:1018E00071E080E090E00E943C02A114B10409F490
:1018F000C4CE0E94F700882309F4BFCE0E940000E6
:10190000BCCE8535910589F30E940C0480E00E94CD
:10191000B40462EF71E081EA93E00E948005809157
:101920000203909103030E94D70464E072E081EA0D
:1019300093E00E94800581E00E94B40466E072E0BA
:1019400081EA93E00E948005809100039091010359
:101950000E94D70464E072E081EA93E00E9480056F
:1019600082E00E94B40466E172E081EA93E00E94A2
:10197000800566E372E081EA93E00E94800583E0DF
:101980000E94B40466E272E081EA93E00E9480055E
:1019900066E372E081EA93E00E94800560E084E003
:1019A0000E949A0160E08DE00E949A010E94D00599
:1019B00094CF8535910509F498CF0E940C0480E0FE
:1019C0000E94B40462EF71E081EA93E00E94800516
:1019D00080910203909103030E94D70464E072E0B7
:1019E00081EA93E00E94800581E00E94B40466E0F1
:1019F00072E081EA93E00E9480058091000390915B
:101A000001030E94D70464E072E081EA93E00E943F
:101A1000800582E00E94B40466E172E081EA93E00E
:101A20000E9480056DE372E081EA93E00E948005E8
:101A300083E00E94B40466E272E081EA93E00E94CF
:101A400080056DE372E081EA93E00E94800561E029
:101A500084E00E949A0161E08DE00E949A010E9458
:101A60008205CFCE82E291E09093BA038093B903CE
:101A70008091FE029091FF02895B934071F4E091A6
:101A8000CC03F091CD0390818091CE038095892382
:101A900080831092FF021092FE020895052E97FB9C
:101AA0001EF400940E94650D57FD07D00E946D0D35
:101AB00007FC03D04EF40C94650D5095409530957D
:101AC00021953F4F4F4F5F4F0895909580957095AA
:101AD00061957F4F8F4F9F4F0895A1E21A2EAA1B49
:101AE000BB1BFD010DC0AA1FBB1FEE1FFF1FA217CE
:101AF000B307E407F50720F0A21BB30BE40BF50BCB
:101B0000661F771F881F991F1A9469F76095709553
:101B1000809590959B01AC01BD01CF010895A29FD6
:101B2000B001B39FC001A39F700D811D1124911DB1
:101B3000B29F700D811D1124911D08950E94A50D65
:101B40006894B1110C94340E08950E94190E88F017
:101B50009F5798F0B92F9927B751B0F0E1F0660F71
:101B6000771F881F991F1AF0BA95C9F714C0B130B2
:101B700091F00E94330EB1E008950C94330E672F5C
:101B8000782F8827B85F39F0B93FCCF386957795E1
:101B90006795B395D9F73EF49095809570956195CA
:101BA0007F4F8F4F9F4F0895E89409C097FB3EF4F5
:101BB00090958095709561957F4F8F4F9F4F99239A
:101BC000A9F0F92F96E9BB279395F6958795779518
:101BD0006795B795F111F8CFFAF4BB0F11F460FFD8
:101BE0001BC06F5F7F4F8F4F9F4F16C0882311F030
:101BF00096E911C0772321F09EE8872F762F05C044
:101C0000662371F096E8862F70E060E02AF09A95DE
:101C1000660F771F881FDAF7880F9695879597F9D3
:101C2000089557FD9058440F551F59F05F3F71F0CC
:101C30004795880F97FB991F61F09F3F79F0879533
:101C40000895121613061406551FF2CF4695F1DFBC
:101C500008C0161617061806991FF1CF869571054C
:101C6000610508940895E894BB2766277727CB0180
:101C700097F908950E944D0E0C94BE0E0E94B00E6E
:101C800038F00E94B70E20F0952311F00C94A70EA7
:101C90000C94AD0E11240C94340E0E94110E70F3AE
:101CA000959FC1F3950F50E0551F629FF001729F01
:101CB000BB27F00DB11D639FAA27F00DB11DAA1F10
:101CC000649F6627B00DA11D661F829F2227B00D5D
:101CD000A11D621F739FB00DA11D621F839FA00DE8
:101CE000611D221F749F3327A00D611D231F849F38
:101CF000600D211D822F762F6A2F11249F5750408F
:101D00009AF0F1F088234AF0EE0FFF1FBB1F661F09
:101D1000771F881F91505040A9F79E3F510580F0D2
:101D20000C94A70E0C94340E5F3FE4F3983ED4F36A
:101D3000869577956795B795F795E7959F5FC1F776
:101D4000FE2B880F911D9695879597F9089597F921
:101D50009F6780E870E060E008959FEF80EC089551
:101D600000240A941616170618060906089500247A
:101D70000A9412161306140605060895092E0394F4
:101D8000000C11F4882352F0BB0F40F4BF2B11F468
:101D900060FF04C06F5F7F4F8F4F9F4F089597FB89
:101DA000072E16F4009407D077FD09D00E94EA0EA2
:101DB00007FC05D03EF4909581959F4F089570954E
:101DC00061957F4F08950E948F0DB7FF0895821B84
:101DD000930B0895AA1BBB1B51E107C0AA1FBB1F91
:101DE000A617B70710F0A61BB70B881F991F5A95A7
:101DF000A9F780959095BC01CD010895EE0FFF1FC6
:101E00000590F491E02D099410E0C2E6D0E004C002
:101E1000FE010E94FE0E2196C336D107C9F7F89441
:101E2000FFCF000000002D018D00BA007A01EB0009
:101E3000C900DD0000000000C2048D006D036C03CA
:101E400000000000D7028D006D03950233034B03A1
:101E5000BF020D0A0041542B434D47463D310D0052
:101E60004154202B20434D4753203D20222B323319
:101E7000333236363330323630372200574154450C
:101E8000522054414E4B2050554D50204953204F25
:101E90004E0049525249474154494F4E2050554DEA
:101EA00050204953204F4E00574154455220544131
:101EB0004E4B2050554D50204953204F4646004927
:101EC000525249474154494F4E2050554D50204998
:101ED00053204F4646002020534D41525420495232
:101EE0005249474154494F4E202000484F4D454DDF
:101EF00041444520454C454354524F4E49435300BD
:101F000020203D3D3D3D3D3D3D3D3D3D3D3D3D3D3B
:101F10003D20200057415445522054414E4B204C07
:101F20004556454C3D002500534F494C204D4F49E7
:101F300053545552453D2000495252494741544956
:101F40004F4E2050554D500057415445522054415A
:101F50004E4B2050554D500020204F46460020202B
:041F6000204F4E00C0
:107E0000112484B714BE81FFF0D085E080938100F7
:107E100082E08093C00088E18093C10086E0809377
:107E2000C20080E18093C4008EE0C9D0259A86E02C
:107E300020E33CEF91E0309385002093840096BBD3
:107E4000B09BFECF1D9AA8958150A9F7CC24DD24C4
:107E500088248394B5E0AB2EA1E19A2EF3E0BF2EE7
:107E6000A2D0813461F49FD0082FAFD0023811F036
:107E7000013811F484E001C083E08DD089C08234E0
:107E800011F484E103C0853419F485E0A6D080C0E4
:107E9000853579F488D0E82EFF2485D0082F10E0AE
:107EA000102F00270E291F29000F111F8ED06801E7
:107EB0006FC0863521F484E090D080E0DECF843638
:107EC00009F040C070D06FD0082F6DD080E0C81688
:107ED00080E7D80618F4F601B7BEE895C0E0D1E017
:107EE00062D089930C17E1F7F0E0CF16F0E7DF06D8
:107EF00018F0F601B7BEE89568D007B600FCFDCFD4
:107F0000A601A0E0B1E02C9130E011968C91119780
:107F100090E0982F8827822B932B1296FA010C0160
:107F200087BEE89511244E5F5F4FF1E0A038BF0790
:107F300051F7F601A7BEE89507B600FCFDCF97BE46
:107F4000E89526C08437B1F42ED02DD0F82E2BD052
:107F50003CD0F601EF2C8F010F5F1F4F84911BD097
:107F6000EA94F801C1F70894C11CD11CFA94CF0C13
:107F7000D11C0EC0853739F428D08EE10CD085E9AC
:107F80000AD08FE07ACF813511F488E018D01DD067
:107F900080E101D065CF982F8091C00085FFFCCF94
:107FA0009093C60008958091C00087FFFCCF809118
:107FB000C00084FD01C0A8958091C6000895E0E648
:107FC000F0E098E1908380830895EDDF803219F02E
:107FD00088E0F5DFFFCF84E1DECF1F93182FE3DFCA
:107FE0001150E9F7F2DF1F91089580E0E8DFEE27F6
:047FF000FF270994CA
:027FFE00040479
:00000001FF
